:020000040800F2
:10000000501D0020910200087D8E000891490008D3
:10001000F15500084115000815D300080000000044
:100020000000000000000000000000004DC90008B2
:10003000251B000800000000B5A500088DC90008B8
:10004000AB020008AB020008AB020008AB020008DC
:10005000AB020008AB020008AB020008AB020008CC
:10006000AB020008AB020008AB020008AB020008BC
:10007000AB020008AB020008AB020008AB020008AC
:10008000AB020008AB020008AB0200080000000051
:10009000000000000000000000000000AB020008AB
:1000A000AB020008AB020008AB020008AB0200087C
:1000B000AB02000875CA0008AB020008AB020008DA
:1000C000AB020008AB020008AB020008AB0200085C
:1000D000AB020008AB020008AB0200080000000001
:1000E000AB020008AB020008AB02000800000000F1
:1000F000000000000000000000000000AB0200084B
:1001000000000000AB020008AB020008AB020008D0
:1001100000000000000000000000000000000000DF
:10012000191B0008AB020008AB020008AB02000874
:10013000AB0200080000000000000000000000000A
:10014000000000000000000000000000AB020008FA
:10015000AB020008AB020008AB020008AB020008CB
:10016000AB020008AB020008000000000000000025
:10017000000000000000000000000000000000007F
:1001800000000000AB0200080000000000000000BA
:10019000AB020008AB02000800F002F800F068F8BB
:1001A00014A696E8000CB244B344DA4501D100F03D
:1001B0005FF8BAE80F000FA696E83000A5EB04053B
:1001C00004EB0607AAEB0704A7F101074FEA151590
:1001D0004FEA3414A4F10104AC4201D300F048F812
:1001E00013F0010F18BFFB1A43F0010300F001F8F0
:1001F000DBE71847E852010008530100103A24BF1A
:1002000078C878C1FAD8520724BF30C830C144BF7B
:1002100004680C6070470000704700000023002451
:1002200000250026103A28BF78C1FBD8520728BF06
:1002300030C148BF0B607047752900F03F817829B5
:1002400000F07881632900F03F84732900F0448432
:10025000002070471FB512F028FE9DE8030000F053
:10026000D3FF00F045FD1FBD10B500F0AAFD10BD85
:1002700000F0DEFD1146FFF7EDFF0DF06DF800F028
:1002800097FF03B4FFF7F0FF03BC0DF047F8000041
:100290000948804709480047FEE7FEE7FEE7FEE71A
:1002A000FEE7FEE7FEE7FEE7FEE7FEE70448054956
:1002B000054A064B7047000061CA00089901000812
:1002C00050130020501D0020501500205015002014
:1002D000704753EA020C00F069802DE9F04B4FF0B3
:1002E0000006002B1FBFB3FA83F503FA05F424FAC6
:1002F00005F65E4012BF1643B2FA82F502FA05F423
:10030000C5F120051EBF22FA05FC44EA0C04203585
:1003100056EA044C4FEA144418BF641C4FF000081E
:100320004FF00009904271EB030C39D3002919BF3B
:10033000B1FA81F701FA07F6B0FA80F700FA07F68A
:10034000C7F120071EBF20FA07FC46EA0C0620373B
:10035000B6FBF4FCA7EB0507103F07F01F0BCBF132
:1003600020062CFA06F60CFA0BFB44BFB346002617
:10037000202FA4BF5E464FF0000B5BEA060C08BFBF
:100380004FF0010B19EB0B0948EB0608ABFB027CA5
:1003900006FB02CC0BFB03CCC01B71EB0C01C1E7CD
:1003A0000B46024641464846BDE8F08B13B508436C
:1003B00018BF4FF0FF300146AFF30080BDE81C408E
:1003C000704700000FB4044910B503AA029800F06A
:1003D00087FB10BC5DF814FBCC0000200FB41CB5EB
:1003E0000C0007AA009007D04142A14202D320444A
:1003F000401E01E04FF0FF30074B7B4469460190FF
:10040000069800F03CFB0020002C01D000990870F9
:100410001CBC5DF814FB0000A706000070B5044684
:1004200085690068C10601D5302600E02026C00796
:1004300007D070BDD4E9012130469047206A401CA6
:1004400020626D1EF6D570BD70B5044685690078D2
:10045000C00707D170BDD4E9012120209047206A50
:10046000401C20626D1EF6D570BD70B50C46054669
:10047000012A05D02878800600D5EA69002302E029
:10048000012305E05B1C934202D2E05C0028F9D115
:10049000A869E618C01AA861286A18442862284684
:1004A000FFF7BCFF04E0D5E9012114F8010B9047E8
:1004B000B442F8D32846FFF7C7FF70BD2DE9F041DD
:1004C0000646002410687529314616A510D0AFF3F2
:1004D0000080002802DA404213A507E031688A074D
:1004E00001D512A502E0490704D511A5012401E0B8
:1004F000AFF3008000210A2206F1240709E0B0FBD7
:10050000F2FCB0FBF2F302FB1C00303078541846CA
:10051000491C0028F3D123462A463046BDE8F04165
:1005200000F04EBA000000002D0000002B0000007B
:100530002000000070B504460D4621461068AFF358
:1005400000802188090502D50F4A7A4402E00E4A4C
:100550007A440E32002104F1240305E000F00F0676
:100560000009965D5E54491C0028F7D120780023CD
:10057000000704D5702D02D009B1022311322046A4
:10058000BDE8704000F01CBA762901002DE9F05F4B
:10059000894604464FF0000ADFF874B1FB44C0F806
:1005A00020A02046E1688847002874D0252806D07E
:1005B000D4E901219047206A401C2062F1E700261F
:1005C0005F462046E16888472028054607DB312D35
:1005D00005D2781910F8200C08B10643F1E7B007EE
:1005E00001D526F00406C4F81CA00027C4F818A002
:1005F0002A2D09D0284612F043FC38B304EB8708B3
:10060000303DC8F8185019E059F8041B204604EB97
:1006100087029161E1688847012F054618D1E0699A
:10062000002820DA26F020061DE0D8F8180000EB9C
:10063000800005EB40003038C8F818002046E1681B
:100640008847054612F01CFC0028EED1012F0AD085
:100650002E2D08D12046E16888477F1C0546022FD1
:1006600046F02006C4DBA069002803DA404246F0C9
:100670000106A061F00701D026F010066C2D0BD00A
:10068000682D09D04C2D39D06A2D35D0742D35D038
:100690007A2D33D016E038E0E1682F4620468847AF
:1006A000B842054609D16C2F26D04FF48060E1682E
:1006B000064320468847054604E06C2F1AD04FF4C5
:1006C000807006430DB3A5F14100192802D82035EA
:1006D00046F400664A462946204626604E46FFF705
:1006E000ABFD80B101280BD0F61D26F0070000F10C
:1006F000080956E74020E4E78020D8E70020D6E745
:1007000006F104094DE7284652E7206ABDE8F09F4C
:100710004C29010010B5044603E012F0B8FB401C60
:1007200009D014F8010B05490028F6D1BDE81040A6
:100730000A2012F0ACBB4FF0FF3010BDCC000020FF
:1007400040EA010310B59B070FD1042A0DD310C84E
:1007500008C9121F9C42F8D020BA19BA884201D9A0
:10076000012010BD4FF0FF3010BD1AB1D30703D0E8
:10077000521C07E0002010BD10F8013B11F8014B9E
:100780001B1B07D110F8013B11F8014B1B1B01D1BA
:10079000921EF1D1184610BD032A40F2308010F0AD
:1007A000030C00F0158011F8013BBCF1020F62440C
:1007B00098BF11F801CB00F8013B38BF11F8013B9D
:1007C000A2F1040298BF00F801CB38BF00F8013B4A
:1007D00011F0030300F02580083AC0F0088051F8BA
:1007E000043B083A51F804CBA0E80810F5E7121DC5
:1007F0005CBF51F8043B40F8043BAFF30080D207E4
:1008000024BF11F8013B11F801CB48BF11F8012BAF
:1008100024BF00F8013B00F801CB48BF00F8012BD2
:10082000704710B5203AC0F00B80B1E81850A0E82E
:100830001850B1E81850A0E81850203ABFF4F5AFAE
:100840005FEA027C24BFB1E81850A0E8185044BF0A
:1008500018C918C0BDE810405FEA827C24BF51F877
:10086000043B40F8043B08BF7047D20728BF31F86B
:10087000023B48BF11F8012B28BF20F8023B48BFBC
:1008800000F8012B7047431A28BF9A427FF6C9AF80
:100890001044114410F0030F1EBF11F8013D521E09
:1008A00000F8013D10F0030F7FF4F6AF103AC0F0EE
:1008B0000A8010B531E9185020E91850103ABFF4F9
:1008C000F9AFBDE81040530724BF31E9081020E913
:1008D000081044BF51F8043D40F8043D12F0030FE6
:1008E00008BF7047D20728BF31F8023D48BF11F852
:1008F000012C28BF20F8023D48BF00F8012C7047AA
:1009000002F0FF0343EA032242EA024200F024B865
:100910004FF000020429C0F0128010F0030C00F028
:100920001B80CCF1040CBCF1020F18BF00F8012BA6
:10093000A8BF20F8022BA1EB0C0100F00DB85FEA74
:10094000C17C24BF00F8012B00F8012B48BF00F840
:10095000012B70474FF0000200B5134694469646AF
:10096000203922BFA0E80C50A0E80C50B1F12001C2
:10097000BFF4F7AF090728BFA0E80C5048BF0CC070
:100980005DF804EB890028BF40F8042B08BF7047CE
:1009900048BF20F8022B11F0804F18BF00F8012B40
:1009A0007047704770477047704710B500F0AAF85D
:1009B000006810BD10B5044600F0A4F8046010BD36
:1009C0002DE9F0470D4699469246044600F1240869
:1009D0000168880604D5E06921F01001216000E07B
:1009E0000120A84201DD471B00E00027A1697A1918
:1009F00002EB0900081AA0612078C00602D4204644
:100A0000FFF70CFD002608E0D4E901211AF80600E2
:100A10009047206A401C761C20624E45F4DB20780B
:100A2000C0060AD52046FFF7F9FC06E0D4E901210B
:100A300030209047206A401C2062381EA7F1010731
:100A4000F4DC07E0D4E9012118F805009047206A9A
:100A5000401C2062281EA5F10105F3DC2046FFF7AB
:100A6000F3FC2078000602D50220BDE8F0870120C3
:100A7000FBE7000001694A1C02610878704700B575
:100A80008FB0CDE901310021059105497944CDE9C7
:100A9000031011466846FFF779FD0FB000BD000056
:100AA000E5FFFFFFD1E900239A4202D2531C0B60FD
:100AB0001070704710B5436913B1AFF3008001E0C7
:100AC000FFF7D3FC012010BD127800F124010A7059
:100AD00000224A700122EDE711684FF0FF32E9E78A
:100AE000074B70B50D467B44FFF7C9FF0446284607
:100AF0000CF030FC10B14FF0FF3070BD204670BDDF
:100B0000A523010000487047740100202DE9F05F23
:100B1000054617460C46C86820F4201040F48000B3
:100B2000C860800602D5084600F083FAE06841F20A
:100B300082014FF0FF3A0140022903D0204600F025
:100B400015FAB9E000F42041B1F5004F0FD1C00310
:100B500006D56168E06A884200D80846606006E011
:100B60002069E062606060690CF0DAFBA061A06857
:100B70000022EEB200280DDAE1688B050AD4C043EA
:100B8000A06041F490302260E0606068411C6160C8
:100B90000670AAE0E0689146226040F40050E060F0
:100BA000206978BB60690CF0BFFB04F124054FF0AD
:100BB0000108A8B1A08910F4407F08D0E06900F0D6
:100BC0005CF9206118B1E06840F4006017E0C4F8F7
:100BD0001C802561E06820F4407040F480600EE0E5
:100BE000E06900F04AF900282061F0D0E06840F4A4
:100BF000006010F4407FE06002D140F48070E0605B
:100C000020696060E06825696FF0010BC1051ED5A1
:100C10006168E06A884200D80846411B04D0224639
:100C2000284600F0ADF9E8BB1FB1E562C4E90159FF
:100C300059E0681CE0626060E069401EA060E06806
:100C400040F48030E06030462E70BDE8F09F17B170
:100C500000F480320AE06068411C61600670E06860
:100C60000A2E40F48030E06006D00022E16A60681D
:100C7000814203D90B4602E00122F7E70346B4F8AC
:100C80000CC05B1B5FEA4C5C04D4D4F81CC09C45D0
:100C900000DD02B3814200D80146002BA1EB000821
:100CA000E56200E008E0C4E9015907DD2246194683
:100CB000284600F065F908B15046C6E7B8F1000FC4
:100CC00009D0A169E5626560A1EB0800A061E06858
:100CD00040F01000E06047B16168A069E562491B1F
:100CE00008446560A0615846AFE73046ADE70000B4
:100CF00010B542485421FFF72DFE41485421FFF71B
:100D000029FE40485421FFF725FE3F493B483C4A15
:100D10003F4B08603D490A603A491960531C03651E
:100D2000481C1065012008653B48344A39A17844C5
:100D300000F0A0F920B9384878440A3800F041FAA8
:100D400037482F4A35A1784400F094F920B9344847
:100D500078440A3800F035FA32482A4A2FA17844FC
:100D600000F088F920B92F4878440A3800F029FAB1
:100D700040232248DC000021224600F0D4F820B1B4
:100D800025487844543800F01CFA1D482246402378
:100D9000002100F0C8F820B121487844543800F010
:100DA00010FA184822461023002100F0BCF8002851
:100DB00006D01C487844BDE81040563800F001BA0F
:100DC00010BD104870B5006D20F001040B4800F014
:100DD000C9F90B4800F0C6F90A4800F0C3F909E068
:100DE000206D20F00105204600F0BCF9204600F0FF
:100DF00073F82C46002CF3D170BD00007800002061
:100E0000CC00002020010020000000200400002071
:100E10000800002072000000EE21010077000000B1
:100E2000DA210100C621010000487047740100204A
:100E30007546FFF7F9FFAE4605006946534620F0B8
:100E40000700854618B020B5FFF730FABDE820400E
:100E50004FF000064FF000074FF000084FF0000B76
:100E6000AC46ACE8C009ACE8C009ACE8C009ACE8E5
:100E7000C00921F007018D46704770B5064600F0A5
:100E8000A7F9056806F10B0020F00704B4429CBFE7
:100E9000002070BD2B466A68BAB11068A04210D31A
:100EA00004F1080188423CBF5068586007D351687C
:100EB000101941601168091B016058601460101D11
:100EC00070BD13465268002AE7D12146284600F03B
:100ED00087F90028DED170BD70B50446051F00F00B
:100EE00077F90068002C14BF446870BD002C18BF4F
:100EF000AC423CBF20466468F8D301680A18AA4295
:100F000018BF456003D12A6805461144016028686E
:100F10004119A1421CBF6C6070BD616869602168A5
:100F20000844286070BD70B5C468A50713D0650279
:100F300011D4B2F5807F09D0B2F5007F06D0B2F5AA
:100F4000806F08D1012300F1240106E05D1E6FF0DF
:100F50007F46B54201D3012070BD0161C36141608C
:100F600024F470611143C160002070BDC16821F498
:100F7000001141F08001C160002181600160704773
:100F80002DE9F74F15460C464FF0FF3B3848D76820
:100F9000D2F814A0074209D05046A9690CF0C8F94C
:100FA000002819DB3248C0430740EF604FF000498A
:100FB0006FF000484C4501D3464600E026460099B4
:100FC0003B46504632460CF0B7F9A96920F0004282
:100FD000B21A1144A96128B12846FFF7C7FF584645
:100FE000BDE8FE8FA41BE5D10020F9E770B50446EB
:100FF0000569C06A6168884200D80846E16821F442
:101000002011E160C90312D5A84208D02246411B35
:101010002846FFF7B5FF10B14FF0FF3070BD00203C
:10102000E562C4E90150E06820F48030E06000200F
:1010300070BD10B50446C06820F02000E060A16AD1
:10104000A06988420DD02046FFF7D0FFE06820F469
:10105000405040F01000E060A06AA0612069E062AA
:10106000606044F24001E0688843E06010BD000029
:10107000100002002DE9F0410C461646070047D04B
:10108000104600F06FF82078611C61280AD07228A1
:1010900002D077283CD102E00125002405E002259A
:1010A000042402E0082448F2020511F8010B2B2861
:1010B00006D0622809D011F8010C74280AD00BE080
:1010C00045F0030544F00204EFE745F0040544F061
:1010D0000104EAE744F01004384621460CF026F9F2
:1010E000411C15D00021316171604FF40071F56031
:1010F000F1617061200704D530460222002100F022
:10110000B9F8306D40F0010030653046BDE8F0813F
:101110000020FBE72DE9F0410D460646104C206DFE
:10112000C10704D0410804D020F00104F7E72246AB
:101130000EE05420FFF7A1FE07000ED0206D47F00F
:1011400001010843542120653846FFF703FC3A4665
:1011500029463046BDE8F0418CE70020D6E7000084
:10116000780000202DE9F04704464FF0FF380026B4
:10117000C568D4E90497A80718D02046FFF736FFC2
:1011800038460CF0C9F8002800DA4646280502D592
:101190004846FFF7A1FE4C212046FFF7DBFB206D00
:1011A00020F0010020653046BDE8F0874046FBE7AF
:1011B00010B50446AFF300802046BDE81040FFF7AD
:1011C00060B810B500F0D8F8BDE8104000F0CEB817
:1011D000004870477C010020704770477047704797
:1011E00038B504460A4600206946AFF3008000285F
:1011F00008BF38BD02460099204600F0D7F801200C
:1012000038BD012000F026B9F8B5AFF300800546DF
:1012100000200C460C2000BF0646A819A0420DD99C
:10122000324669460020AFF30080070008BF00F097
:1012300011F90098A04218BF0546C419FFF7C8FF6E
:1012400005600746F01D20F007004619284600F00B
:101250000AF8B44208BFF8BDA21B31463868BDE8A1
:10126000F84000F0A3B800210160416070470C20F5
:10127000704700002DE9F041044616460D464769C7
:10128000007B80072ED038460CF04EF850BB3EB3A2
:10129000012E02D0022E25D104E0204600F0A0F855
:1012A00005441DE038460CF03BF8E168002841F0A9
:1012B0001001E16005DA2046FFF758FE0120BDE885
:1012C000F081C9030BD56268E16A914200D81146EA
:1012D000A26911442269891A814200DD0846054449
:1012E000002D01DA0220EAE7E16A6068E2688142E3
:1012F00006D29103E06203D522F4003141F01002DE
:10130000A6690027AE4213DCE16A814201D90B468F
:1013100000E0034603EB060C2369ACEB030CAC4581
:1013200006DD814201D98C4600E084469C4505D10A
:10133000A760276042F02000A5620DE0AD1BE669C2
:10134000AE1B8142A66000D90846C01A281A206048
:101350005819606022F0200003490840E060002036
:1013600084F84870ABE70000BFCFD7FF002801D05A
:101370000BF0D4BF7047000010B5014602A000F08A
:1013800050F8012010BD00005349475254524544C3
:101390003A2052656469726563743A2063616E270E
:1013A00074206F70656E3A200000000003464068AC
:1013B0008C46002818BF88423CBF03464068F8D3DB
:1013C00018681844884207D00CF1030020F0070089
:1013D000001D411A521A0146081D0A60FFF77CBD24
:1013E00010B50146C268900703D0900607D5886AF9
:1013F0000AE0FFF787FB01210160881E10BD8B69A1
:10140000486818440B69C01A91F848301BB191F82C
:101410004910401A10BD1103FCD50028FADD401E0A
:1014200010BD70B505460C460A2000E06D1C0BF09F
:101430008FFF35B128780028F8D102E0641C0BF04A
:1014400087FF14B120780028F8D1BDE870400A2049
:101450000BF07EBF10B500F005F8BDE81040FFF7B7
:1014600085BF000010B5012805D0002103A0FFF7BB
:10147000D8FF012010BD09A1F8E7000053494752E9
:10148000544D454D3A204F7574206F662068656154
:1014900070206D656D6F7279000000003A2048651C
:1014A0006170206D656D6F727920636F72727570F7
:1014B000746564000146806B036C026C13F0500F7E
:1014C00008D0D20648BF00F073BD806BC26C0846DE
:1014D000104700BF42F40071016401688A6812F08D
:1014E000405F01D000F034BD027E002AFAD1CA6A02
:1014F00012F4700F02D08A685205F3D44A6822F0C1
:1015000020024A60016C21F480710164016CC904FD
:1015100048BF00F01DBD016C41F00101016400F005
:1015200017BD0000806B40210164416C41F0040153
:10153000416400F03DBD0000806B00F023BD000061
:10154000FEE700002DE9F04381B02DED028B40F263
:10155000D416C2F20006707C40F218080238B0FAC5
:1015600080F000274009C4F20208B767F7603774BB
:10157000B074F77401F0A0FB40F25024C2F20004F2
:1015800040F20C054FF6FF71C4E90007707CC2F20F
:101590000005C0F60001C5F80610072102284FF427
:1015A0008000B782B775A6F85270A760A6F81770CA
:1015B000777608BF01212970C8F8000040F6F8309E
:1015C000C2F2000000688268920709D4826892071C
:1015D0005CBF82685FEA827202D482689207F2D5A9
:1015E000402202738268920709D4826892075CBF26
:1015F00082685FEA827202D482689207F2D5017330
:10160000816889070AD4816889075CBF81685FEABD
:10161000817103D481688907F2D500BF816809060A
:1016200009D58168090644BF81685FEA016102D576
:1016300081680906F2D44020C8F80000698C9FED4B
:10164000588A00EE101A95ED031AB8EE400A20EE03
:10165000080AB8EE411A80EE010A40F2C8270020BD
:1016600040F2403841F60039C2F200077083C2F2FE
:1016700000084FF07E56C4F63729C7E90800C7E9CD
:101680000600C7E90E00C7E91000C7E91200386577
:10169000A4F860107865E060C7E91600C7E9180093
:1016A000C8F81060BE62C5F82C9011F08BFAA88CB7
:1016B00095ED032A01EE100AB8EE411A21EE081A40
:1016C000B8EE422A81EE021A30EE000A84ED040AD6
:1016D000A4F86200C8F81460FE62C5F83090B0EE5D
:1016E000410A11F06FFAE88C95ED032A01EE100A19
:1016F000B8EE411A21EE081AB8EE422A81EE021A1B
:1017000030EE000A84ED050AA4F86400C8F81860F9
:101710003E63C5F83490B0EE410A11F053FA288DBB
:1017200095ED032A01EE100AB8EE411A21EE081ACF
:10173000B8EE422A81EE021A30EE000A84ED060A63
:10174000A4F86600C8F81C607E63C5F83890B0EE57
:10175000410A11F037FA688D95ED032A01EE100A5F
:10176000B8EE411A21EE081AB8EE422A81EE021AAA
:1017700030EE000A84ED070AA4F86800C8F820607B
:10178000C5F83C90B0EE410A11F01CFA30EE000AA8
:1017900084ED080ABDEC028B01B0BDE8F08300BF08
:1017A000DB0FC9402DE9F04F8BB0011F11F1030F82
:1017B000C0F0B68040F2D412C2F20002517C00297F
:1017C00040F0AE804FF0000C507482F820C082F8D8
:1017D00026C082F834C043F2981243F2A211C0F638
:1017E0000102C0F60101032808BF11469EA7A0A26E
:1017F00040F20C0940F6504508BF3A464FF47A567D
:101800000328C2F200094FF4A07440F2E737C2F295
:10181000000508BF44F62066C9F80C6008BF4FF405
:10182000C874A9F80440032808BF40F21F372B688A
:10183000EF60DF620127C3F824C05F616FF001072A
:101840000D891F614B680968A9F82A50156892F83C
:1018500004C0C9F8221045F2853287A1C9F82630A4
:10186000C9F81C5089F820C0C0F60102032808BF3F
:101870001146B9F82600B9F82220B9F82430B9F891
:101880002870B9F82AE099F81DA099F81EB099F8C7
:101890001F80EDB28DE8814003A880E8200C43F65C
:1018A0007740CDE9086440F2D414C0F60100C2F2DA
:1018B0000004CDF81880CDF81CC0FEF783FD607CD5
:1018C000811EA0F10200B0FA80F04FEA501018BF5C
:1018D0000121207284F82110FFF734FE0AF06EFF18
:1018E000207808B399F8001043F28816607CC0F69F
:1018F0000106715C03282DD001284DD143F2D2504E
:10190000C0F60100FEF75EFD45F25F00C0F6010083
:10191000FEF700FF43F64220C0F6010036E000BFAC
:101920000BB0BDE8F08F00BF0AF048FFB9F8040023
:1019300040F2BA41420040F6FC20C2F20000C2F27E
:10194000000100F04BFC002866D044F6C970C0F6D8
:10195000010078E043F23460C0F60100FEF732FD8A
:10196000B9F82210B9F82420B9F82630B9F828704F
:10197000B9F82A5043F28B30C0F60100CDE900756A
:10198000FEF720FD43F6A120C0F601004FF4487198
:10199000FEF718FD0CE000BF43F27650C0F60100E0
:1019A000FEF710FD44F6EA70C0F60100FEF7B2FE45
:1019B00099F80000315C44F25C50C0F60100FEF77B
:1019C00001FD07F0A1FA607C30B107F011FE0BB009
:1019D000BDE8F04F08F0B0B845F25C31C0F6010147
:1019E000002007F041FC45F29D31C0F601010220C4
:1019F00007F03AFC45F2B331C0F60101042007F0CC
:101A000033FC45F2D131C0F6010106200BB0BDE830
:101A1000F04F07F029BC00BF0120207040F6504075
:101A2000C2F2000002F042F900283FF45BAF002050
:101A3000207040F6FC20C2F2000000F081FC44F669
:101A4000AB70C0F60100FEF765FE40F6000472B60A
:101A5000C4F2020420464FF4005101F01FF9642043
:101A600000F0DCFEF6E700BF606060606000000030
:101A70001E487E7E3C0000004E4F524D414C0000FF
:101A800040F2184CC4F2020C4FF48032CCF8002023
:101A900040F6F832C2F20002126893689B0709D43C
:101AA00093689B075CBF93685FEA837302D4936873
:101AB0009B07F2D5030A032161F31F131373916887
:101AC000890709D4916889075CBF91685FEA8171D1
:101AD00002D491688907F2D510739068800709D401
:101AE000906880075CBF90685FEA807002D490685D
:101AF0008007F2D59068000609D59068000644BFBB
:101B000090685FEA006002D590680006F2D4012078
:101B1000CCF800007047000040F64430C2F20000EC
:101B200000F096BC7047000040F2D410C2F20000F2
:101B300090F82810012930D190F82B103039C9B213
:101B400009292AD870B542F62C72C0F6010252F863
:101B5000211090F82C2011F802E0BEF1000F1AD0ED
:101B600090F827C0BCF12F0F15D890F8293040F21B
:101B7000F4329C45C2F200021AD202F1310101F89E
:101B800003E00CF10102013380F8272080F82930AE
:101B9000D2B200238B54BDE87040002180F8281099
:101BA000A0F82B1040F25020C2F200008164704770
:101BB0006446614615194C1E95F8316024B29C426A
:101BC00085F83260D9DB15198C1E95F8316024B286
:101BD0009C4285F83260D0DB1519CC1E95F8316037
:101BE00024B29C4285F83260C7DB1519043995F898
:101BF00031600CB29C4285F83260DBDABDE7000050
:101C000070B540F2D41EC2F2000E9EF827100029D3
:101C100008BF70BD9EF8290040F2F43C884224BF02
:101C2000481E8EF82900C3B28B42C2F2000C27D2A4
:101C3000081A10F0030411D05A1C0CF13100855C15
:101C4000012CC5540BD09D1C465D022C865425D119
:101C50002A46581A10F1040F05D911E01A46581AED
:101C600010F1040F0CD8ACF104000C468518D5F81F
:101C70003660043CA24200F10400C5F83560F5D19D
:101C8000481EC1B25CFA80F200268EF827008B4213
:101C900082F8316088BF8EF8290070BDDA1C845C40
:101CA0004455581A10F1040FDDD9E9E740F6000455
:101CB00072B6C4F2020400BF20464FF4005100F097
:101CC000EDFF642000F0AAFDF6E70000F0B581B05A
:101CD00040F25807044643F60C46C2F200070020C3
:101CE000C4F20206F86100F0E7FF3168C9031DD4B1
:101CF0003068C0071CBF01203060306810F4F97FE5
:101D000032D03068C00633D43068800639D43068A9
:101D100040063FD43068000645D43068C0054BD437
:101D20003068800752D4012001B0F0BDC4B105462F
:101D3000601C10D13068C003DAD53068C00344BFDE
:101D400030685FEAC030D3D53068C003F2D4CFE743
:101D50003068C003CCD500F0AFFF401BA042F7D9DC
:101D6000032001B0F0BD00BF002001B0F0BD00BFF6
:101D7000F86940F01000F86110203060306880068B
:101D8000C5D5F86940F00800F8612020306030685F
:101D90004006BFD5F86940F00400F861402030608B
:101DA00030680006B9D5F86940F00200F86180207B
:101DB00030603068C005B3D5F86940F00100F861C3
:101DC0004FF48070306030688007ACD5F86940F01F
:101DD0002000F86102203060012001B0F0BD000059
:101DE00070B581B00022009290F83C20012A03D106
:101DF000022001B070BD00BFD1F800E00122BEF1A9
:101E00000A0F1FFA8EFC80F83C2009D34FEA4C02DF
:101E1000036812FA8EF2A2F11E0403F10C0204E030
:101E200003680EEB4E0403F1100207251668A54067
:101E300026EA050515608D68166805FA04F4344332
:101E400014604968062907D801EB81014A1F194629
:101E500051F8345F0FE000BF0C2901EB810105D878
:101E6000A1F12302194651F8305F04E0A1F14102CB
:101E7000194651F82C5F1F24944025EA04040C6095
:101E80000CFA02F20C6842F2043CC4F2010C224348
:101E9000ACF54174A3420A6006D0002180F83C10E2
:101EA000002001B070BD00BF1221BEF1110FC1F2C0
:101EB000000118BF8E453BD1DCF800208E4522F48E
:101EC0008002CCF80020DCF8002042F40002CCF8BC
:101ED0000020E2D140F25401C2F2000109684DF63F
:101EE0008362C4F21B32A1FB0212910C01EB81014F
:101EF0004900009100990029CFD000BF0099013915
:101F0000009100990029C8D00099013900910099E9
:101F10000029C2D000990139009100990029BCD054
:101F200000990139009100990029E7D1B5E700BF78
:101F3000BEF1120FB1D1DCF8001021F40001CCF891
:101F40000010DCF8001041F48001CCF80010A4E788
:101F5000006842F20001C4F20101884200D07047DB
:101F600040F2D410C2F200000178002908BF704787
:101F700040F20C01C2F200018988A0F84C10012146
:101F800041707047006842F20001C4F201018842CA
:101F900000D0704740F2D410C2F20000017800294E
:101FA00008BF70470021A0F84C1001214170704714
:101FB00070470000002804BF0120704710B5016C75
:101FC00000293DD0016CC90645D4016C41F20212D2
:101FD0009143023142F204320164C4F201021168F9
:101FE00021F440311160136890E812102343D0F8B7
:101FF00010E013604A68012422F480724A604A6843
:10200000C0F6007442EA0E224A604A6822F040722A
:102010004A604A6842EA0C024A608A6822F4006216
:102020008A60C2688B681A438A60826A8B68A2429F
:1020300023F070638B608B6810D123F0405216E060
:10204000044600F065F820460021616484F83C10E5
:10205000016CC906B9D5012153E000BF1A438A605B
:102060008A6822F040528A60C26A8B681A438A608A
:102070008A6822F002028A608A68037E90F8204013
:1020800042EA43028A604A6884B142F400624A60CC
:102090004A684EF2000322F460424A60426ACFF678
:1020A000FF734C6803EB4232224301E022F40062EA
:1020B0004A60CA6A40F2000C22F47002CA62C36924
:1020C0004269CFF6F07CCC6A0CEB03532343CB621E
:1020D0008B6823F400738B6090F830308C6844EA8E
:1020E00043238B608B6823F480638B608B6843EAA7
:1020F00082228A6000214164026C012363F30102A1
:102100000264002280F83C20BDE810400846704779
:1021100070B586B0044642F200002168C4F20100A6
:10212000002681420596CDE903660296019601D00C
:1021300006B070BD43F630010096C4F202014A6950
:1021400000F5684042F480724A614A6902F4807284
:102150000092009A00960A6842F004020A600A6837
:1021600002F004020092009A00960A6842F480028B
:102170000A60096801F48001009100991021019121
:102180000321CDE9021601A900F0B2FC40F6443566
:1021900046F21040C2F20005C4F202004FF4806122
:1021A000C5E9000605F110004FF400624FF400533A
:1021B0004FF4807C80E80E104FF40030C5E908062B
:1021C0002846C5E9026600F025FA002818BFFFF787
:1021D0006DFDA563AC6306B070BD0000B0B582B004
:1021E0000023019390F83C30012B03D1022002B070
:1021F000B0BD00BF8E460123016880F83C308B687B
:102200009446DB0729D18B684DF6836443F00103C4
:102210008B6040F25403C2F200031B68C4F21B340B
:10222000A3FB0434A30C03EB43030193019BA3B171
:10223000019B013B0193019B7BB1019B013B0193FE
:10224000019B53B1019B013B0193019B2BB1019B6E
:10225000013B0193019B002BEAD18B68DB0503D581
:102260008B6823F480738B608C68036CE4070BD15C
:1022700043F01001016400F14401002001220B68C9
:102280001A430A6002B0B0BD40F20174A34303F5E3
:10229000807303644B685B0504D5036C012464F30D
:1022A0000D330364046C0023E4044FF0000444BFC6
:1022B000446C24F00604446480F83C30836B41F2A3
:1022C000B54441F23952C0F60004C0F60002C3E939
:1022D0000F4241F22552C0F60002DA646FF022028A
:1022E0000A604A6842F2080442F080624A608A68E2
:1022F000054642F480728A604C3118467246634645
:10230000C4F2010400F038FAD4F8FC222968D2069D
:1023100006D0A4F1080291420AD002B0B0BD00BFBD
:1023200051F8082F12F0405FF7D14FF08042A6E736
:10233000216811F0405FF0D14FF0804221469EE7C6
:1023400090F83C10012904BF02207047B0B501216C
:10235000026880F83C109168002421F0010191602E
:102360009168C9074FF0000123D1916821F4807171
:102370009160816B91F83520022A0BD10546084601
:1023800000F01EF840B12A6C0146284642F0400297
:102390002A6403E0002101E0002128460268536816
:1023A00023F080635360026C41F201139A430132BF
:1023B000026480F83C40BDE8B04008467047000029
:1023C00070B5866D044600F077FC94F8351002294C
:1023D00028D105462068216C026822F016020260AE
:1023E000426922F08002426109B9A16C19B1016809
:1023F00021F008010160016821F00101016000BFC6
:1024000020680068C00715D000F056FC401B062865
:10241000F6D320206065032084F83500002184F87D
:10242000341070BD802060650120002184F83410D4
:1024300070BD00BFE06D3F2101FA00F0B0600120E7
:1024400084F835000020002184F8341070BD0000AD
:10245000F0B581B00021009140F25401C2F20001B8
:102460000B68D0E9166148F2B51537680822C1F645
:102470004E358A403A42A3FB05350CD003681C68F0
:10248000640708D51C6824F004041C60B260426D27
:1024900042F00102426501228A403A4208D00368B4
:1024A0005B691B0604D5B260426D42F002024265D0
:1024B00004228A403A4208D003681B689B0704D56F
:1024C000B260426D42F00402426510228A403A42F4
:1024D00019D001680B681B0715D5B2600B680A6834
:1024E0005B0309D4D20509D40A6822F008020A6005
:1024F000016C29B907E000BF110341D4016C11B18F
:10250000044688472046C26D202101FA02F33B426F
:1025100043D001680F68FF063FD5B36090F835706F
:102520000B68052F1CD123F016030B604B6923F0B9
:1025300080034B61036C0BB9836C1BB10B6823F0F8
:1025400008030B603F219140B160012180F83510F4
:10255000016D0022002980F8342054D158E000BFDA
:102560000A685B0310D4D20512D40A6822F0100264
:102570000A60012180F83510002180F8341007E04E
:10258000816C0029BCD1BEE7110301D4416C00E08D
:10259000C16B11B1044688472046416DC1B3416DFE
:1025A000C9072ED0052180F835100168AA0A0B68EA
:1025B00023F001030B60009B0133934200931AD870
:1025C0000B68DB0717D0009B01339342009312D8AE
:1025D0000B68DB070FD0009B0133934200930AD8AE
:1025E0000B68DB0707D0009B01339342009302D8AE
:1025F0000B68DB07DFD1012180F83510002180F85E
:102600003410C16C21B101B0BDE8F040084700BFF3
:1026100001B0F0BD2DE9F041044600F04DFBECB1F6
:102620000546022084F835000020216884F8340033
:10263000086820F00100086021680868C00711D010
:1026400000F03AFB401B0528F6D903252023032080
:10265000636584F83550BDE8F08100BF0120BDE816
:10266000F08100BF086848F23F02CFF21002D4E9BF
:10267000013500EA020C04F10C0898E8C10143EAB4
:102680000C032B431843D4E9072E3043384310433F
:10269000626A40EA0E00042A40EA08031CD1206B5B
:1026A000D4E90A2E40EA0E00184308604869BEF1DA
:1026B000000F20F0030040EA020040F0040C11D0AB
:1026C000B8F5005F36D0B8F1000F45D1022A46D0E8
:1026D000012A3BD032B942E00B60486920F0070084
:1026E00040EA020C01F0F8004AF6AB221038CAF6B4
:1026F000AA22A0FB02231A0943F29013C1F814C0C6
:10270000C0F601039A5C40F2FF335F284FF03F00B0
:1027100021EA030100FA02F088BF0431C4E916126D
:102720008860002301250020636584F83550BDE8EA
:10273000F08100BF032AD5D8012540230120DFE81E
:1027400002F0030E030500BF82E700BFAEF1C070C8
:10275000B0FA80F0400904E0032A04D3C2D1CEF3DA
:1027600000600028BED0012540230120636584F865
:102770003550BDE8F081000090F834C0BCF1010F85
:1027800004BF0220704770B54FF0010C80F834C0D0
:10279000D0F858E090F835C0BCF1010F38D14FF0B7
:1027A000020C80F835C04FF0000CC0F854C0D0F8CF
:1027B00000C08468056CC06DDCF80060402C26F415
:1027C0008026CCF80060CCF804300B4604BF1346DA
:1027D0000A463F2101FA00F0CCF80830CCF80C2072
:1027E000CEF80800DCF8000040F01600CCF800003D
:1027F0002DB1DCF8000040F00800CCF80000DCF857
:10280000000040F00100CCF80000002070BD00BFC7
:10281000002180F83410022070BD0000B0B50446DD
:1028200000F04AFA054640F24C00C2F2000000787F
:10283000611C18BF044400BF00F03EFA401BA042D8
:10284000FAD3B0BD2DE9F04381B040F25808C2F28E
:10285000000898F81820012A04D1022001B0BDE830
:10286000F08300BF0546012088F818004CF2503074
:102870008946FFF72BFA28B1002188F8181001B01B
:10288000BDE8F0834FF0FF30C9F80000286843F638
:1028900010470128C4F202071CD1286939680002D8
:1028A00021F440713960396880B241F00401396027
:1028B0003968084340F4803038604CF25030FFF7FC
:1028C00005FA396821F00401396057F8101C8905B0
:1028D0003BD452E0D5E902603044864230D2F00069
:1028E000841C00BF28694FF44072C1B203293968C3
:1028F0004FEA002021F440713960396838BF82B254
:1029000041EA02003860386820F0F8003860386822
:1029100020433860386840F4803038604CF25030E2
:10292000FFF7D4F93968002821F0FA01396047D15E
:10293000D5E9020101360844864204F10804D1D3E6
:10294000002057F8101C890517D557F8101C21F4E2
:10295000007147F8101C57F8101C41F4006147F84B
:10296000101C57F8101C21F4006147F8101C57F890
:10297000101C41F4007147F8101C57F8101C490551
:102980007FF57AAF57F8101C21F4806147F8101CCE
:1029900057F8101C41F4805147F8101C57F8101CD0
:1029A00021F4805147F8101C57F8101C41F4806145
:1029B00047F8101C002188F8181001B0BDE8F0831A
:1029C000C9F8006057F8101C8905BED4D5E700008F
:1029D00043F61041C4F20201086840F000420020B2
:1029E0000A6070472DE9F04140F25804C2F2000439
:1029F000277E012F04BF0220BDE8F081054601209B
:102A000020764CF2503098460F461646FFF75EF996
:102A100020B100212176BDE8F08100BF2A46022DB9
:102A200043F61045C4F202051ED0012A314638464D
:102A30000CD03ABB2A6822F440722A602A682A60C5
:102A40002A6842F001022A6001702CE02A6822F410
:102A500040722A602A6842F480722A602A6842F032
:102A600001022A6001801EE0286820F4407028607E
:102A7000286840F400702860286840F00100286051
:102A80003E6010E02A6822F440722A602A6842F40C
:102A900040722A602A6842F001022A600160BFF396
:102AA0006F8FC0F804804CF25030FFF70FF929689F
:102AB00021F00101296000212176BDE8F0810000AC
:102AC00043F60440C4F20200C168B1F1FF3FC4BF45
:102AD0000020704740F22311C4F26751016048F6AC
:102AE000AB11CCF6EF510160C068C00F7047000019
:102AF0002DE9F04F83B000F1200200F13E4741F292
:102B00000005009207F1FF77C4F2020507224FEAA1
:102B1000B726A84208BF042200254FF000084FF056
:102B20000009042E38BF4FEAB72201920AE000BF25
:102B300009F1010908F10208B9F1100F05F10405C6
:102B400000F0A2800F68012202FA09FE17EA0E0ABD
:102B5000EED0D1F804C003220CF003077E1E02FA67
:102B600008F4012E6FEA040B12D88468CE6804EAD8
:102B70000B0406FA08F634438460446824EA0E061F
:102B8000CCF3001404FA09F42643466004E000BFC5
:102B9000032F01D103271EE0C6688C6806EA0B06E6
:102BA00004FA08F42643022FC66014D16FF0030222
:102BB000009E02EA590756F807C005F01C040F22D0
:102BC0000B69A2402CEA0202A3401A43F251D1F849
:102BD00004C00CF00307026807FA08F302EA0B02CC
:102BE0001A431CF4403F0260A2D0002243F6440383
:102BF0000292C4F202031A6843F6004442F480428F
:102C00001A601A68C4F2010402F480420292029A25
:102C100029F003024FF6084C2244CFF6FF7C52F80D
:102C20000C3005F00C070F26BE40B343019E06FA98
:102C300007F73B4342F80C30A2684B6842EA0A07A8
:102C400043F60C4CDE0258BF22EA0A07A760C4F222
:102C5000010CDCF800209E0242EA0A0758BF22EA73
:102C60000A07CCF8007062689E0342EA0A0758BF60
:102C700022EA0A0767602268DB0342EA0A0758BFB4
:102C800022EA0A07276053E703B0BDE8F08F00008F
:102C90000069084018BF012070470000426902EA3D
:102CA0000103914341EA034181617047002A08BF53
:102CB000090481617047000041F24C30C2F200000B
:102CC00000687047002804BF01207047F0B581B04C
:102CD000044690F83D0028B9002084F83C002046C6
:102CE00000F09AFA242084F83D002068016821F061
:102CF00001010160016841F400410160016821F4B3
:102D00000041016000F042FC636848F2A16CC0F22F
:102D1000010C40F60011C0F23D0163453CBF48F292
:102D20008041C0F21E01884202D2012001B0F0BDF4
:102D30004DF68361C4F21B31A0FB01122168970C90
:102D4000D1F804E04FF496762EF03F0545EA92451F
:102D50004D60774348F638160D6AC0F24106A7FB6E
:102D6000067625F03F07634538BF960C721C3A4340
:102D70000A62CA6948F2A0664CF6FF77C0F2010603
:102D8000B34222EA07020BD801385B00B0FBF3F034
:102D900001306FF31F30042898BF04201BE000BFF0
:102DA000A768013857B119277B43B0FBF3F0013016
:102DB0006FF31F3070B100F5804007E003EB430371
:102DC000B0FBF3F001306FF31F3018B100F5004095
:102DD00001E000BF01201043C8610868D4E907235F
:102DE00020F0C000104318430860886848F2FF32A2
:102DF00004F10C0790438CCF18431043A6698860F8
:102E0000C86820F0FF0038433043C860086840F0CD
:102E10000100086000202021206484F83D10206318
:102E200084F83E0001B0F0BD2DE9F04F83B01E469E
:102E3000924688460446FFF73FFF94F83D1020294C
:102E400024D12168054600BF886980071AD5FFF79D
:102E500033FF401B21681A28F6D388698007F3D511
:102E600000202021206384F83D1084F83E00216C6E
:102E700041F02001216484F83C00022003B0BDE849
:102E8000F08F00BF94F83C00012803D1022003B06A
:102E9000BDE8F08F4FF0010984F83C900868C00746
:102EA00003D1086840F0010008600868002720F49A
:102EB00000600860242084F83D000020CFF6FF70F9
:102EC0002764E06208F0FE08BAF1010F88BFD1461E
:102ED0004FF0A00A4FF0200B04E000BF01374F4530
:102EE00000F0A2800868002240F48070086020464C
:102EF0004FF001113346009501F0AAFD216800282A
:102F000056D1C1F81080FFF7D7FE21684B694A6996
:102F100094F83D50A02D054605D013F0020008BFDF
:102F200012F480601AD084F83DB048690A688007BE
:102F300042F400720A6045D46FF48060486100BFBB
:102F400088698007CAD5FFF7B7FE401B21681A2899
:102F5000F6D388698007F3D54AE000BFB6B100BF59
:102F6000FFF7AAFE401BB04288BF84F83DA021684D
:102F70004A69486994F83D30A02BD4D012F002027F
:102F800008BF10F48060EBD0CDE700BFFFF794FEE0
:102F900084F83DA021684A69486994F83D30A02B27
:102FA000C1D012F00202BED110F48060EED0BAE7B8
:102FB0000868C00544BF4FF400702064032003B0CC
:102FC000BDE8F08F00200290486902908869029065
:102FD0000298886901E000BF806980071AD5FFF771
:102FE0006BFE411B20681A29F6D381698907F3D546
:102FF00000202021206384F83D1084F83E00216CDD
:1030000041F02001216484F83C00012003B0BDE8B8
:10301000F08F00BF202084F83D00002084F83C00A1
:1030200003B0BDE8F08F00BF202084F83D000020F1
:1030300084F83C00012003B0BDE8F08F2DE9F04397
:1030400083B01E46174689460446FFF735FE94F8BE
:103050003D10202924D10546206800BF81698907D9
:103060001AD5FFF729FE411B20681A29F6D381697A
:103070008907F3D500202021206384F83D1084F8CF
:103080003E00216C41F02001216484F83C000220C4
:1030900003B0BDE8F08300BF94F83C10012903D1D0
:1030A000022003B0BDE8F083012184F83C100168E0
:1030B000C90703D1016841F001010160016840F2D4
:1030C000020821F400610160212184F83D101021E3
:1030D00084F83E100021216467626685618DC0F22C
:1030E00001082185A8F10211E162E16A0A9E11F549
:1030F000803F18BF01291DD1016841F48071016032
:1031000020464FF0011100223346009501F0A0FC4B
:1031100050B120680068C00544BF4FF400702064BF
:10312000012003B0BDE8F0832069B0F5804F07D1DE
:10313000FE2015E00829DFD0216B1229DCD0DFE763
:10314000062000EAD9102168F030086108F1060174
:10315000204632462B4601F061FD0028E0D1FF20D9
:10316000216800EA090008612046414632462B46A4
:1031700001F054FD0028D3D100200290206841695D
:10318000029180690290029806E000BF2046314615
:103190002A4601F0FFFB18BB208D68B3204631465C
:1031A0002A4601F0A7FDD8B9606A2168024612F8E4
:1031B000013B0B616262628D013A6285228D531E72
:1031C00023854F697F07E1D51B04DFD043780230A8
:1031D0000B616062608D01386085901E2085D5E7A7
:1031E000206C04289CD12068016841F400710160C2
:1031F000012003B0BDE8F0832068016841F400714C
:103200000160202084F83D00002084F83E0084F80E
:103210003C0003B0BDE8F083B0B586B045F600458C
:103220000068C4F200050021A8420591CDE9031110
:103230000291019102D006B0B0BD00BF43F630004C
:103240000091C4F20200026801AC42F00102026087
:10325000026802F001020092009A0091026842F0B6
:1032600004020260026802F004020092009A0091D7
:10327000016941F4000101610069214600F4000088
:10328000009000984FF4807001901220029001206D
:103290000390032004900420059005F5D230FFF739
:1032A00027FC4FF40070019005F5D6302146FFF75A
:1032B0001FFC06B0B0BD000040F24C0041F24C31A2
:1032C000C2F20000C2F2000100780A6810440860EF
:1032D0007047000080B543F60040C4F20200016868
:1032E00041F400710160016841F48061016001688E
:1032F00041F480710160032000F086F80F2000F097
:1033000005F800F027F8002080BD000070B540F2FD
:103310004C06C2F2000640F254013278C2F20001BB
:103320004FF47A730968B3FBF2F20446B1FBF2F191
:10333000084600F0F1FB0F2C4FF0010508D838B912
:103340004FF0FF3021460022002500F031F8746074
:10335000284670BD82B0002043F640010190C4F2BF
:1033600002014A6842F480424A604A6802F480429C
:103370000192019A0090086840F080500860086847
:1033800000F080500090009802B07047002848BFBD
:10339000704700F01F01012202FA01F11C2202EA2B
:1033A000D0004EF20012CEF20002815070470000B1
:1033B00010B54EF60C5CCEF2000CDCF80030C3F316
:1033C000022E8EF00704042C28BF0424BEF1030350
:1033D0004FF0FF3E0EFA04F438BF0023A14399409A
:1033E0000EFA03F39A43114300F00F0200F1604319
:1033F0000901043A03F564436244002848BF02F11E
:103400000C03197010BD00004EF60C51CEF20001F5
:103410000A684FF6FF031A4060F30A2242F0806008
:1034200040F0FD7008607047002804BF012070471D
:103430002DE9F04143F60808C4F202080446D8F822
:10344000F8030D4600F00700884207D288F8F853C9
:10345000D8F8F80300F00700A84277D12068810768
:1034600017D5410705D5D8F8001041F4E051C8F848
:103470000010010705D5D8F8001041F46041C8F8E4
:103480000010D8F80010A26821F0F0011143C8F82C
:103490000010C00740D1D8F8F80300F00700A84298
:1034A00007D988F8F853D8F8F80300F00700A842C5
:1034B0004CD12068410707D5D8F80010E26821F404
:1034C000E0511143C8F80010000708D5D8F80000F3
:1034D000216920F4604040EAC100C8F8000000F013
:1034E0007DF8D8F8001043F23C02C1F30311C0F696
:1034F0000102515C40F2540220FA01F140F2500006
:10350000C2F200000068C2F200021160FFF7FEFE86
:103510000020BDE8F08100BF6068811E022907D24B
:1035200058F8081C89015CBF0120BDE8F08111E05A
:10353000012807D158F8081C89035CBF0120BDE8A9
:10354000F08107E058F8081C890703D40120BDE882
:10355000F08100BFD8F8001021F003010843C8F83B
:103560000000FFF7A9FB064641F28837D8F80000B3
:10357000616800F00C00B0EB810F8CD0FFF79CFB72
:10358000801BB842F2D90320BDE8F08140F254001C
:1035900043F60801C2F20000C4F2020100680968A3
:1035A00043F24C02C1F38221C0F60102515CC840D3
:1035B0007047000040F2540043F60801C2F20000D8
:1035C000C4F202010068096843F24C02C1F34231BF
:1035D000C0F60102515CC8407047000010B543F6C8
:1035E0000404C4F20204606800F00C0008280BD048
:1035F000042819BF42F20040C0F2F40047F6400030
:10360000C0F27D1010BD00BF206821682368490208
:1036100047F64001C0F27D1100F03F02C3F388106D
:103620005CBF42F20041C0F2F401A1FB00010023A3
:10363000FCF74FFE21680222C1F3014102EB410178
:10364000B0FBF1F010BD0000002804BF012070475E
:103650002DE9F04182B00446007843F60006C00729
:10366000C4F202060CD0B06800F00C00042840F050
:1036700081803068800303D56068002800F068818D
:10368000207880071BD5B06810F00C0F09D0B06807
:1036900000F00C00082840F087807068400200F1BC
:1036A00083803068800703D5E068012840F05081AE
:1036B0003068216920F0F80040EAC10030602078CD
:1036C000000713D4207840072AD4A569002D00F004
:1036D0003A81B06800F00C00082840F0A580012D68
:1036E00040F00E81012002B0BDE8F0816069002841
:1036F00000F082800020C4F247200121C0F8801E23
:10370000FFF7DAFA054600BF706F8007DAD4FFF7DB
:10371000D3FA401B0228F7D9032002B0BDE8F0819C
:10372000306C5FEAC0080AD400200190306C40F091
:1037300080503064306C00F080500190019847F266
:103740000007C4F200073868C00547D4386840F461
:1037500080703860FFF7B0FA054600BF3868C005D2
:103760003CD4FFF7A9FA401B0228F7D9032002B086
:10377000BDE8F081B06800F00C00082803D1706843
:1037800040023FF576AF61683068B1F5803F07D001
:10379000B1F5A02F40F09A8040F48020306030686E
:1037A00040F4803030609AE0E068002840F2000089
:1037B000C4F247205CD001210160FFF77DFA054685
:1037C000306880073FF574AFFFF776FA401B022898
:1037D000F6D9032002B0BDE8F08100BFA168306FC8
:1037E000012905D0052955D140F004003067306F1C
:1037F00040F00100306756E00020C4F2472000216D
:10380000C0F8801EFFF758FA054600BF706F8007AA
:103810007FF558AFFFF750FA401B0228F6D9032076
:1038200002B0BDE8F08100BF0027C4F247270020A6
:103830003866FFF741FA022D05460DD13068800148
:1038400040F18A80FFF738FA401B02284FF003004E
:10385000F4D902B0BDE8F0813068800173D5FFF77C
:103860002BFA401B02284FF00300F5D9F1E700BF07
:1038700000210160FFF720FA054600BF306880078D
:103880007FF51DAFFFF718FA401B02284FF0030029
:10389000F4D9DEE720F001003067306F002920F016
:1038A000040030677AD0FFF707FA054641F28837FF
:1038B000306F800700F18480FFF7FEF9401BB842AB
:1038C000F6D9032002B0BDE8F08100BF20F48030BB
:1038D00030603068002920F4802030607AD0FFF713
:1038E000EBF90546306880033FF5CAAEFFF7E4F90F
:1038F000401B6428F6D9032002B0BDE8F08100BF68
:103900007068E16900F480028A4221D1216A00F0E6
:103910003F028A421CD147F6C071626A0140B1EB96
:10392000821F15D1A16A4FF6FF73C903994300F4B2
:103930004032A1F580318A420AD1E16A00F070601C
:10394000B0EB016F04D1002002B0BDE8F08100BFF0
:10395000012002B0BDE8F08104F11C052FCD084321
:1039600040EA8210D9034FF6FF729143A1F58031EE
:1039700040EA05600843706001203866FFF79CF953
:10398000044600BF30688001DDD4FFF795F9001BC5
:1039900002284FF00300F5D95BE700BFFFF78CF971
:1039A000054641F2883700BF306F800708D5FFF722
:1039B00083F9401BB8424FF00300F5D949E700BF37
:1039C000B8F1000F3FF581AE306C20F080503064CC
:1039D0007BE600BFFFF770F9054600BF3068800343
:1039E0007FF54EAEFFF768F9401B64284FF00300E7
:1039F000F4D92EE770B528B1416A29B100210161DF
:103A0000142106E0012070BD4168B1F5827F02D02B
:103A10001C21002242500026866290F8511029B9DC
:103A200080F85060054600F03DF82846022180F8F5
:103A3000511090E82E0002F482720C6803F40443E3
:103A400024F040040C601A4405F4006305691A442C
:103A500005F0020345691A4405F001038569C4694C
:103A60001A4405F400731A4404F03803046A1A4433
:103A700004F08003846A1A4304F400531A430A6072
:103A8000436A042202EA154203F010031A444A6012
:103A9000CA6922F40062CA610121466580F85110AA
:103AA000304670BD80B586B043F200010068C4F2B4
:103AB0000101002288420592CDE90322029201927F
:103AC00002D006B080BD00BF43F630000092C4F2C1
:103AD0000200436943F480534361436903F4805314
:103AE0000093009B0092036843F0010303600068A9
:103AF00000F0010000900098A02001900220CDE984
:103B00000202032004900520059001F5504001A910
:103B1000FEF7EEFF06B080BD411E0020B0EB116F36
:103B20001CBF012070474EF21002CEF2000251601D
:103B30004EF62351CEF20001F0230B700721906066
:103B400011607047704700007047000090F83C20FB
:103B5000012A4FF0020241D010B580F83D200268E2
:103B6000D2F804E0D2F808C00C682EF070032343AA
:103B700040F6FF34C4F20004A242536010DCB2F1FC
:103B8000804F1ED040F20043C4F200039A4218D086
:103B900040F60003C4F200039A4212D016E000BFC0
:103BA00040F60043C4F200039A420AD044F20003F4
:103BB000C4F201039A4204D00023C4F201039A42E2
:103BC00004D149682CF0800319439160012100223F
:103BD00080F83D1080F83C20BDE81040104670474A
:103BE000002804BF0120704710B5044690F83D003E
:103BF00028B9002084F83C00204600F01FF802207D
:103C000084F83D002068211D08F03AFF012084F867
:103C1000460084F83E0084F83F0084F8400084F8B1
:103C2000410084F8420084F8430084F8440084F89A
:103C3000450084F83D00002010BD000080B582B032
:103C4000006840F20041C4F20001884214D0B0F193
:103C5000804F0ED10020019043F64000C4F20200D4
:103C6000016841F001010160006800F0010001906D
:103C7000019802B080BD00BF0020009043F64000D4
:103C8000C4F202000168002241F0020101600068F4
:103C9000012100F00200009000981D20FFF788FB32
:103CA0001D2002B0BDE88040FFF770BB90F83D10CA
:103CB00001291CBF01207047022180F83D100068D7
:103CC00040F6FF31C4F2000188420FDCB0F1804FB2
:103CD0001DD040F20041C4F20001884217D040F6E6
:103CE0000001C4F20001884211D017E040F6004103
:103CF000C4F2000188420AD044F20001C4F201017A
:103D0000884204D00021C4F20101884206D18168B2
:103D100001F00701062904BF00207047016841F047
:103D2000010101600020704790F83D1001291CBF7F
:103D300001207047022180F83D10006840F6FF32F4
:103D4000C168C4F20002904241F00101C1600FDC81
:103D5000B0F1804F1DD040F20041C4F20001884212
:103D600017D040F60001C4F20001884211D017E0DC
:103D700040F60041C4F2000188420AD044F200013A
:103D8000C4F20101884204D00021C4F2010188423A
:103D900006D1816801F00701062904BF00207047A1
:103DA000016841F001010160002070470146006890
:103DB00041F21113026A1A4204D00122002081F854
:103DC0003D207047026A40F244431A42F5D102682E
:103DD00022F0010202600122002081F83D2070479C
:103DE00090F83C20012A4FF002026CD080B580F898
:103DF0003D20D0F800C04FF67772DCF8083023EA97
:103E00000202CCF808200B684F2B29DC1F2B45DD64
:103E1000202B46D0302B44D0402B40F0AF80D1F83F
:103E200004E0C968DCF82030DCF8202022F0010230
:103E3000CCF82020DCF8182022F0F00242EA011130
:103E400023F00A0242EA0E02CCF81810CCF8202027
:103E5000DCF8081041F0470121F0300128E000BFF4
:103E60006F2B33DDB3F5005F74D0B3F5805F21D0E5
:103E7000702B40F08380D1E901E3C968DCF80820A9
:103E800043EA0E0322F47F4243EA01211143CCF8B6
:103E90000810DCF8081041F0770109E00BB1102B95
:103EA0006CD1DCF8081021F07001194341F00701D2
:103EB000CCF808100022012180F83D10002180F884
:103EC0003C10BDE880401046704700BF502B21D009
:103ED000602B53D1D1F804E0C968DCF82030DCF85D
:103EE000202022F01002CCF82020DCF8182022F448
:103EF000704242EA013123F0A00242EA0E12CCF8ED
:103F00001810CCF82020DCF8081041F0670121F0EF
:103F10001001CDE7D1F804E0C968DCF82030DCF806
:103F2000202022F00102CCF82020DCF8182022F01A
:103F3000F00242EA011123F00A0242EA0E02CCF832
:103F40001810CCF82020DCF8081041F0570121F0BF
:103F50002001ADE7D1E901E3C968DCF8082043EAB4
:103F60000E0322F47F4243EA01211143CCF80810EA
:103F7000DCF8081041F480419AE700BF01229AE77B
:103F80007047000070B504460068C5680669B1074F
:103F900016D515F0020113D06FF002010161012165
:103FA00021778069800703D02046FFF7E9FF05E00D
:103FB000204600F08FF8204600F08EF80020207791
:103FC000700719D515F0040016D020686FF00401B1
:103FD000016102212177806910F4407F04D02046DE
:103FE000FFF7CEFF06E000BF204600F073F8204642
:103FF00000F072F800202077300717D515F0080080
:1040000014D020686FF00801016104212177C06994
:10401000800703D02046FFF7B3FF05E0204600F0FD
:1040200059F8204600F058F800202077F00619D5FE
:1040300015F0100016D020686FF010010161082102
:104040002177C06910F4407F04D02046FFF798FF25
:1040500006E000BF204600F03DF8204600F03CF8A6
:1040600000202077F00718BF15F0010002D13006BC
:1040700009D412E020686FF001010161204600F0D0
:104080002DF8300609D515F0800006D020686FF0B5
:10409000800101612046FFF755FD700609D515F036
:1040A000400006D020686FF040010161204600F01A
:1040B00037FBB00658BF70BD15F0200008D021684E
:1040C0006FF0200220460A61BDE87040FFF73CBD5A
:1040D00070BD00007047000070470000B0B5014699
:1040E00040F20040C4F202000968A0F5003291429B
:1040F00000D0B0BD40F2D415C2F20005E978002925
:10410000F7D0E978012940F0CB802979002900F027
:104110000181296F6A6F48F2092411446967696F48
:1041200045F29942890EC0F60102515C40F20C0240
:10413000C2F20002527880395143CFF6FF7414FB6B
:1041400001F40AB201EB14418CB209B240F2184CEE
:104150008911C4F2020C01EBD4344FF48031CCF855
:10416000001040F6F831C2F2000109687E2CA8BFA9
:104170007E248B689B0709D48B689B075CBF8B6888
:104180005FEA837302D48B689B07F2D56FF07F03DD
:104190005C4012F57C5FD8BF0124E2B212093032D4
:1041A0000A738A68920709D48A6892075CBF8A6892
:1041B0005FEA827202D48A689207F2D522010A73FA
:1041C0008A68920709D48A6892075CBF8A685FEAA6
:1041D000827202D48A689207F2D58A68120609D5DB
:1041E0008A68120644BF8A685FEA026202D58A685A
:1041F0001206F2D40122CCF80020AB6E0133AB667C
:10420000AB6EB3F5165FFFF474AF00232B71AB6692
:10421000EB666A714FF48032CCF800208A6892070E
:1042200009D48A6892075CBF8A685FEA827202D406
:104230008A689207F2D538220A738A68920709D4ED
:104240008A6892075CBF8A685FEA827202D48A68D1
:104250009207F2D500220A738A68920709D48A6805
:1042600092075CBF8A685FEA827202D48A6892070A
:10427000F2D58A68120609D58A68120644BF8A6890
:104280005FEA026202D58A681206F2D401234FF473
:1042900080510122CCF80030BDE8B040FEF706BDE9
:1042A0006979002900F0D880E96E0131E966E96E8C
:1042B000B1F5907F38BFB0BD0024EC66B5F84E1064
:1042C0000131A5F84E10B5F84E10B5F850209142C6
:1042D00080F07E81B5F84E0041F22821C2F2000143
:1042E000085C40F20C01C2F20001042888BF0020E3
:1042F000E8720A18127F01EB40004A706C67418C2B
:1043000000204FF4FA420023FBF7E3FF28676C71AB
:10431000B0BD00BFA979032900F26C816979002939
:1043200073D1296F6A6F45F29943114469676A6FC7
:10433000C0F60103920E9A5C40F20C03C2F2000335
:104340005B78803A48F209245A43CFF6FF7414FB95
:1043500002F413B202EB144294B212B240F2184CBF
:104360009211C4F2020C02EBD4344FF48032CCF838
:10437000002040F6F832C2F2000212687E2CA8BF7C
:104380007E249168890709D4916889075CBF916888
:104390005FEA817102D491688907F2D56FF07F01DD
:1043A0004C4013F57C5FD8BF0124E1B209093031DC
:1043B00011739168890709D4916889075CBF916876
:1043C0005FEA817102D491688907F2D521011173E6
:1043D0009168890709D4916889075CBF91685FEA91
:1043E000817102D491688907F2D59168090609D5CF
:1043F0009168090644BF91685FEA016102D591683E
:104400000906F2D40121CCF80010E96E0131E96609
:10441000A96E0131A966A96EB1F5FA4FC0F002810B
:104420000021E966A966AA790132AA71AA79032A4C
:1044300000F24E816971A87940F20C02C2F20002CA
:10444000032888BF0020E87213181B7F02EB40008E
:104450005370696711E100BF286F696F45F2994297
:1044600008446867696FC0F60102890E515C40F22A
:104470000C02C2F200025278803948F209235143FB
:10448000CFF6FF7313FB01F30AB201EB13418BB2BA
:1044900009B240F218408911C4F2020001EBD33393
:1044A0004FF48031016040F6F831C2F20001096832
:1044B0007E2BA8BF7E238C68A40709D48C68A40730
:1044C0005CBF8C685FEA847402D48C68A407F2D560
:1044D0006FF07F04634012F57C5FD8BF0123DAB22E
:1044E000120930320A738A68920709D48A689207DF
:1044F0005CBF8A685FEA827202D48A689207F2D54A
:104500001A010A738A68920709D48A6892075CBF05
:104510008A685FEA827202D48A689207F2D58A6852
:10452000120609D58A68120644BF8A685FEA0262E9
:1045300002D58A681206F2D401220260EB6E0133C2
:10454000EB66EB6EB3F5F06FFFF4D3AD0023EB66D3
:104550006A714FF4803202608A68920709D48A68CF
:1045600092075CBF8A685FEA827202D48A68920707
:10457000F2D538220A738A68920709D48A689207AA
:104580005CBF8A685FEA827202D48A689207F2D5B9
:1045900000220A738A68920709D48A6892075CBF6E
:1045A0008A685FEA827202D48A689207F2D58A68C2
:1045B000120609D58A68120644BF8A685FEA026259
:1045C00002D58A681206F2D401210160B0BD00BF95
:1045D0000121EC706C72A97204464FF480510122E3
:1045E000FEF764FB204680210122BDE8B040FEF7C3
:1045F0005DBB00BFE96E0131E966EA79E96E002A28
:104600003ED0B1F5165FFFF474AD00210122E966DA
:10461000A9662A72E9706A72AA7204464FF4805140
:10462000DEE700BF687968B9E86EB0F5F06F09D3CE
:104630000120002168714FF40060E966BDE8B040D8
:10464000FDF71EBA687901287FF453ADE86EB0F526
:10465000907FFFF44EAD00206871E866A97940F2C2
:104660000C02C2F20002032988BF0021E97253182C
:104670001B7F5370686702EB4100418C002048E0CB
:10468000B1F57A4FFFF435AD0021E966A966EA7904
:1046900004460132EA7140F20C022971A971697174
:1046A000E972C2F20002137F002053706967518CD7
:1046B0004FF4FA420023FBF70CFE034620464FF46A
:1046C000805100222B67BDE8B040FEF7EFBA00BF73
:1046D000E97979B1012104464FF400606971FDF771
:1046E000CFF920464FF480510122BDE8B040FEF7DB
:1046F000DDBA00BF01202871002004216871E97231
:1047000040F20C01C2F2000191F820204A70686763
:10471000498D4FF4FA420023FBF7DBFD2867B0BD5B
:1047200070470000002804BF0120704710B5044600
:1047300090F8410028B9002084F84000204600F09D
:1047400021F8242084F841002068C16821F4005138
:10475000C160204608F06AFD2068016921F490419B
:104760000161416921F02A014161C16841F40051B0
:10477000C16000202021606484F8411084F8421058
:10478000606310BD80B586B044F200410068C4F299
:104790000001002288420592CDE903220292019293
:1047A00002D006B080BD00BF43F630000092C4F2D4
:1047B0000200036943F400330361036903F4003327
:1047C0000093009B0092026842F0010202600068C0
:1047D00000F00100009000980C200190022002904F
:1047E00001200390032004900720059001F5DE309E
:1047F00001A9FEF77DF906B080BD00002DE9F04368
:1048000081B0044690F84100202809D100294FF0DA
:10481000010018BF002A07D101B0BDE8F08300BF36
:10482000022001B0BDE8F0830020606421201D4615
:104830000E4684F841001746FEF73EFAA784E78447
:10484000A1688146B1F5805F02D1206900285DD062
:1048500037460020E28C2168002A5DD06A1C24D0F3
:10486000002D4AD0804600BF0868000608D4FEF735
:1048700023FAA0EB0900A8427AD82168C868F3E7B8
:1048800017B117F8010B04E038F8020B00276FF39B
:104890005F204860E08C0138E084E08C0028E3D1A0
:1048A0003AE000BF0A68120609D40A68120606D464
:1048B0000A6812065CBF0A685FEA0262F2D51FB19D
:1048C00017F8012B05E000BF30F8022B00276FF32B
:1048D0005F224A60E28C013AE284E28C002AE4D151
:1048E0001AE000BF30F8022B00276FF35F224A6006
:1048F000E28C013AE284E28C72B10A68120635D584
:10490000002FEFD017F8012BF1E700BF002730464A
:10491000E28C2168002AA1D1086840061ED42DB37C
:10492000681C14D1086840062AD40868400627D4B9
:104930000868400624D4086840064FF00000F1D50E
:104940000DE000BF2068C1680068400618D4FEF77B
:10495000B3F9A0EB0900A842F4D909E00020202116
:1049600084F8411001B0BDE8F08300BFFEF7A4F960
:104970000320202184F8411001B0BDE8F08300BF7E
:104980000020202184F8411001B0BDE8F083000030
:10499000FEE7000070B50368044653F8140F4007A3
:1049A00011D40E46481C29D086BB00BF18684005AC
:1049B00027D4FEF781F9236853F8140F400737D541
:1049C00018684007F2D5002070BD00BF1868400786
:1049D000F9D41868400514D418684007F3D418684F
:1049E00040050ED418684007EDD41868400508D477
:1049F000186840074FF0000048BF70BD18684005B8
:104A0000E4D56FF480601860042012E0154603E0DE
:104A100053F8140F4007D6D418684005F1D4FEF7B8
:104A20004BF9401B2368B042F2D958694007EFD4D4
:104A3000202000212022216384F83D2084F83E10AC
:104A4000226C10432064012084F83C1070BD0000EB
:104A50002DE9F041054600681E46144601F47F0228
:104A600001338FB242D0DDF81880B2F5803F40F0BC
:104A7000878040693840C01BB0FA80F04009A042EE
:104A800040F0C8804EB924E040693840C01BB0FAFD
:104A900080F04009A04240F0BD80FEF70DF9A0EB88
:104AA00008012868B142EFD941693940C91BB1FA00
:104AB00081F14909A142E7D19BE000BF406938403C
:104AC000C01BB0FA80F04009A0424FF0000040F057
:104AD000A280FEF7F1F8286841693940C91BB1FA94
:104AE00081F14909A142E9D183E000BFB2F5803FDD
:104AF00024D100BF41693940C91BB1FA81F149098C
:104B0000A14240F0878041693940C91BB1FA81F167
:104B10004909A14240F07E8041693940C91BB1FA80
:104B200081F14909A14275D141693940C91BB1FAE6
:104B300081F14909A142DDD06CE000BF81693940B3
:104B4000C91BB1FA81F14909A14263D18169394098
:104B5000C91BB1FA81F14909A1425BD18169394090
:104B6000C91BB1FA81F14909A14253D18169394088
:104B7000C91BB1FA81F14909A142DFD04AE000BF67
:104B800080693840C01BB0FA80F04009A04241D192
:104B900046B923E080693840C01BB0FA80F0400974
:104BA000A04237D1FEF788F8A0EB08012868B1428F
:104BB000F0D981693940C91BB1FA81F14909A14293
:104BC000E8D116E080693840C01BB0FA80F0400997
:104BD000A0424FF0000018BFBDE8F081FEF76CF86E
:104BE000286881693940C91BB1FA81F14909A1429C
:104BF000E8D100202021286385F83D1085F83E008B
:104C0000296C41F02001296485F83C000120BDE8B1
:104C1000F08100BF0020BDE8F0810000F0B581B058
:104C2000044600681D4643698FB203EA0701B94292
:104C300002D1002001B0F0BD4169164601323CD0DE
:104C4000490512D47EB300BFFEF736F8411B206839
:104C5000B14203D941693940B9422BD14169394048
:104C6000B942E6D041694905EED5016841F40071C9
:104C700001606FF4806141610420002120222163E2
:104C800084F83D2084F83E10226C1043206484F8A0
:104C90003C10012001B0F0BD41693940B942C8D093
:104CA00041694905E1D4FEF707F8206841693940B8
:104CB000B942F1D02020E0E741694905D5D44169E6
:104CC0003940B942B5D041694905CED4416939402E
:104CD000B942AED041694905C7D441693940B942AA
:104CE000A7D041694905C0D441693940B942E3D1EF
:104CF0009FE7000070B50368044653F8140F0006E0
:104D000011D40E46481C29D086BB00BF1868400548
:104D100027D4FDF7D1FF236853F8140F000637D5C9
:104D200018680006F2D5002070BD00BF18680006A4
:104D3000F9D41868400514D418680006F3D418682C
:104D400040050ED418680006EDD41868400508D454
:104D5000186800064FF0000048BF70BD1868400595
:104D6000E4D56FF480601860042012E0154603E07B
:104D700053F8140F0006D6D418684005F1D4FDF797
:104D80009BFF401B2368B042F2D958690006EFD45C
:104D9000202000212022216384F83D2084F83E1049
:104DA000226C10432064012084F83C1070BD000088
:104DB000F0B581B040F2D415C2F20005697C69B14A
:104DC0002A281BD1E87800283ED045F24D20C0F6B5
:104DD000010001B0BDE8F040FBF79CBC432800F0A7
:104DE000B580422800F0AC80412840F0B580012019
:104DF00001B0BDE8F040FCF7D5BC00BF95F820201D
:104E000062B1EA78002A00F0DF800FF2C872014632
:104E1000104601B0BDE8F040FBF7D4BAA0F1310272
:104E2000D2B2022A00F2AA80022940F0A78095F8A7
:104E30003310002900F040810FF2687001B0BDE826
:104E4000F040FBF767BC00BF95F82000002800F099
:104E5000FB8095F8280001282DD195F82B003038DB
:104E6000C0B2092827D842F62C71C0F6010151F8CA
:104E7000200095F82C1010F801E0BEF1000F1AD0B8
:104E800095F827C0BCF12F0F15D895F82920944527
:104E900080F0368240F2F430C2F20000313000F887
:104EA00002E00CF10101013285F8271085F8292074
:104EB000C9B20022425440F250240020C2F2000441
:104EC00085F82800A5F82B00A06485F8200085F857
:104ED00034002878002800F0118140F20C00C2F262
:104EE0000000007843F28811C0F60101095C44F229
:104EF0003E50C0F60100FBF765FA04F005F8687C47
:104F0000A8BB45F25C31C0F60101002004F0ACF909
:104F100045F29D31C0F60101022004F0A5F945F2E9
:104F2000B331C0F60101042004F09EF945F2D131FD
:104F3000C0F60101062001B0BDE8F04004F094B9CC
:104F4000022001B0BDE8F040FCF72CBC032001B00A
:104F5000BDE8F040FCF726BC44F6C830C0F60100BE
:104F6000FBF7D8FB03F0D0FF687C0028C9D004F021
:104F70003FFB01B0BDE8F04004F0DEBD442808BFAF
:104F8000022900F0A780EA7C012A40F0AF8040F2BD
:104F90000C06C2F20006307843F28811C0F6010117
:104FA0000C5C05F033F9F388B5F85260024643F61D
:104FB0008010C0F6010021460096FBF703FA01B00D
:104FC000BDE8F04004F014BB2A7A002A00F0B0805B
:104FD000A0F12302212A00F2B88045F2D621C0F6C2
:104FE0000101DFE812F02300B200B200B200B2000B
:104FF000B200B200B200B200B200B200B200B20021
:105000007501F101DB01E1017B01BB01C101ED0192
:10501000E7016101B200B200B200B200B200B2001A
:10502000B200810167014F01C70100BF0446FCF7D0
:105030007BFD95F82700002800F0018201B0BDE853
:10504000F04007F099BD00BF95F82100002800F05E
:105050007F8040F20040C4F20200002600F580602C
:105060004FF40051012285F82D600124FDF71EFE4A
:1050700085F8346072B62E706E7040F6504062B69D
:10508000C2F20000FEF792FE40F6FC20C2F20000E1
:10509000FDF756F907F092FBA87C002808BFFCF743
:1050A00051FA85F82040287A002867D044F6A730C6
:1050B000C0F6010054E700BFA0F1300295F82600C9
:1050C000D1B2884285F821204ED1002085F82600F3
:1050D0004CE000BF95F83300002863D00FF29040F9
:1050E00001B0BDE8F040FBF715BB00BFAA7C002A69
:1050F0005ED001B0BDE8F04003F0B8BA07F05EFB47
:1051000040F20C00C2F20000808840F2BA41420036
:1051100040F6FC20C2F20000C2F20001FDF75EF88A
:10512000002859D044F6C970C0F601006BE000BFFA
:10513000232829D101F0FD00012840F08380E87880
:1051400018B9287A002800F0AB8101B0F0BD00BF8B
:1051500045F21F10C0F60100FBF7DCFA01B0BDE814
:10516000F04004F045BA00BF03285BD843F2640264
:10517000C0F6010252F8202058E000BF44F6784003
:10518000C0F60100ECE600BF43F2A122C0F6010226
:1051900001461046FBF716F901B0BDE8F04004F0F7
:1051A000CBBC00BF01B0BDE8F04003F069BE00BF5A
:1051B000A0F14102D2B2012A4ED801F0FD0101292D
:1051C0004AD10121412808BF4FF0FF31084601B004
:1051D000BDE8F04005F05CB80120287040F6504072
:1051E000C2F20000FEF762FD00283FF476AE002018
:1051F000287040F6FC20C2F20000FDF7A1F844F64A
:10520000AB70C0F60100FBF785FAFDF755FD00F520
:10521000FA706064012085F8340044F60270C0F62C
:1052200001009DE645F24A32C0F6010243F6251020
:10523000C0F60100FBF7C6F801B0BDE8F04004F08D
:10524000D7B900BF44F2FD40C0F60100022101B011
:10525000BDE8F040FBF7B6B840F20C06C2F200061B
:10526000307843F28811C0F601010C5C04F0CEFFE7
:10527000F388B5F85260024644F27B30C0F6010074
:1052800099E600BF044695F82800012840F0048103
:1052900040F250210020C2F2000185F82800A5F854
:1052A0002B0088642D23E2E045F24431C0F6010171
:1052B0008AE000BF0446FCF737FC95F8271095F804
:1052C000290088423CBF013085F82900B7E000BFC3
:1052D00045F2C121C0F6010176E000BF45F22A3156
:1052E000C0F6010170E000BF0446FCF71DFC95F814
:1052F000290000281CBF013885F829009FE000BF65
:1053000040F2F433C2F20003644661461E194C1E9B
:1053100096F8310024B2944286F83200FFF6BAAD16
:1053200018198C1E90F8316024B2944280F83260D3
:10533000FFF6B0AD1819CC1E90F8316024B294423B
:1053400080F83260FFF6A6AD1819043990F8316084
:105350000CB2944280F83260D8DA9BE545F22F31E6
:10536000C0F6010130E000BF45F23431C0F6010162
:105370002AE000BF40F2502104460020C2F20001A2
:10538000886440F2F431C2F20001A5F82B00A5F8C0
:10539000270085F8290081F8310050E045F2F1211D
:1053A000C0F6010110E000BF45F22231C0F6010154
:1053B0000AE000BF45F23F31C0F6010104E000BF42
:1053C00045F23931C0F601010022D3B2CB5C8BB17A
:1053D00042F00103DFB2CF5D5FB142F00203DFB202
:1053E000CF5D37B142F00303DFB2CF5D0432002F4F
:1053F000EBD11A4695F8281001290DD195F82B10FC
:10540000814209D1044695F82C00D2B20130C1B2D4
:10541000914228BF002009E00646FCF785FB0120E9
:1054200085F828003446002085F82B6085F82C008C
:10543000FDF742FC40F25021C2F20001886495F869
:105440002800012810D195F82B003038C0B2092867
:105450000CD842F62C71C0F6010151F8200095F8E5
:105460002C10435C03E000BF2D2300E0002340F23A
:10547000F430C2F2000095F8297000F1310244F2D4
:105480002030C0F6010021460097FAF79BFF01B0DB
:10549000BDE8F04004F050BBFCF7B2FB2D23E6E77B
:1054A000002485F8344072B62C706C7040F6504081
:1054B00062B6C2F20000FEF779FC40F6FC20C2F2B0
:1054C0000000FCF73DFF07F079F9A87C002808BF31
:1054D000FCF738F8012785F82A7040F20C0672B6FE
:1054E000AC726C72EC712C71AC71AC666C71EC6668
:1054F000EC72C2F20006307F4FF4FA4270706C67B3
:10550000718C00200023FAF7E4FE40F20044286783
:10551000EF70C4F2020462B620464FF480510022BC
:10552000FDF7C4FB204680210022FDF7BFFB44F6B7
:10553000CD60C0F60100FBF7EDF8728D44F2B76064
:10554000C0F601004FF496714FF4FA63FAF73AFF90
:1055500044F26560C0F601003C2109224FF47A73E1
:10556000FAF730FF01B0BDE8F04004F0E5BA00BF43
:1055700064657374696E6174696F6E206368616ECF
:1055800067652069676E6F726564207768696C650E
:105590002061206672616D652069732061637469A2
:1055A00076650D006E6F6465204944206368616E06
:1055B00067652069676E6F726564207768696C65DE
:1055C0002061206672616D65206973206163746972
:1055D00076650D00747820627573792C206B65797F
:1055E0002025632069676E6F7265640D0A000000F4
:1055F000FEE700002DE9F04FCDB040F2502A0679C9
:10560000C2F2000A8B460546CAF8401002F0E6FED8
:1056100040F2D419C2F2000999F83300DFE810F023
:10562000080018014000C6002C003401440100BFEE
:10563000042E41F0FD8299F83900012841F0F882EA
:10564000DAF83800ABEB0001A1F2911010F1650F10
:10565000C1F0EE8240F24037C2F2000797ED000A37
:105660009FEDED1AB4EE410AF1EE10FA81F2648179
:10567000002001F0C6BA00BF042E40F02581DAF800
:105680003C00ABEB0001EB2900F2C88143F6FE5071
:10569000C0F601004DB0BDE8F04FFAF793BE00BF71
:1056A000032E00F2918140F20C00C2F200004FF094
:1056B0008241816141F2A8000025C2F20000C021B0
:1056C00089F83B60C9E90F5589F84450FBF742F966
:1056D0004FF0FF30A9F85C0089F85E0040F24030DE
:1056E000C2F2000024303021CAF83C50CAF83450CD
:1056F000A9F8565089F85850A9F8595089F85B50C4
:10570000FBF728F940F29434C2F20004204630211D
:10571000FBF720F940F64060C2F20000C021FBF721
:1057200019F940F2C820C2F20000C0E90055C0E9F2
:105730000255C0E9045504F13000302189F8615068
:10574000A9F85F50A9F8625089F86450FBF702F994
:1057500040F60070C2F200004621FBF7FBF840F66D
:105760004870C2F200004621FBF7F4F840F6907052
:10577000C2F200004FF48C71FBF7ECF80320002E0E
:1057800089F8330000F0DE8799F83A1019272325AD
:1057900043F61B50C0F6010032460223CDE9005704
:1057A000FAF710FE4DB0BDE8F08F00BF042E41F0B7
:1057B0001B824FF0FF30A9F85C0089F85E0040F2D0
:1057C0004030C2F20000002524303021CAF83CB03D
:1057D000A9F8565089F85850A9F8595089F85B50E3
:1057E000FBF7B8F840F29434C2F2000420463021AE
:1057F000FBF7B0F840F64060C2F20000C021FBF7B2
:10580000A9F840F2C820C2F20000C0E90055C0E982
:105810000255C0E9045504F13000302189F8615087
:10582000A9F85F50A9F8625089F86450FBF792F824
:1058300099F83C000423411C43F69670C0F6010021
:10584000462289F833304DB0BDE8F04FFAF7BABDC3
:10585000022E00F2C580002089F81A0043F254009D
:10586000C0F6010050F8261044F2AA40721C022330
:10587000C0F6010089F83A2089F833304DB0BDE810
:10588000F04FFAF79FBD00BF022E00F0B780042E44
:1058900040F0BA8044F67970C0F601004DB0BDE822
:1058A000F04FFAF737BF00BF022E00F03B87032E00
:1058B00000F0B681042E40F03D870FF6A8604DB091
:1058C000BDE8F04FFAF726BF2979032901F28C8150
:1058D000DAF83C00ABEB0003A3F5807010F1D80FB1
:1058E000C1F08281CF27C52B4FF0020238BF8A2733
:1058F00038BF01228A2B38BF4527F81A38BFD81B7A
:1059000095ED032AB7EE000AB2EE001AB4EE402A73
:10591000F1EE10FAB0EE410A03DD95ED020A80EED9
:10592000020AB4EE410AF1EE10FAC8BFB0EE410A25
:105930008A2B40F24033C2F2000338BF002203EB4F
:10594000021303EB810740F29433C2F2000303EB2E
:10595000021303EB810393ED001A97ED092AB4EECD
:10596000410A32EE001AF1EE10FA87ED091A15DD40
:1059700083ED000A40F64063C2F2000303EB82139A
:1059800003EB01174FEA011CD5E90464D5E9061EB3
:1059900043F80C60C7E90141C7F80CE009EB0201CC
:1059A00091F859202AB191F85C20C3B29A4241F291
:1059B0001B812A7981F85C0081F85620012281F848
:1059C00059204DB0BDE8F08F042E40F0AB8044F676
:1059D0004650C0F601004DB0BDE8F04FFAF79ABE50
:1059E000F01E012800F2AE80042E40F04F8745F2F1
:1059F0005731C0F6010100F04FBF00BF062089F803
:105A000033004DB0BDE8F08F44F68F70C0F6010052
:105A1000FAF780FEA7E000BF8096984A01F18A005D
:105A200048F2DB11C7F2B961A0FB01124FF0FF3160
:105A300001EBD214B0F58A7F38BF002402F0BAF827
:105A400099F83C70002C5AD0452F58D840F240307D
:105A5000C2F2000000F1240640F29430C2F20000CD
:105A600040F2C82A64424FF000084FF0FF39C2F2FA
:105A7000000A00F1300500BF43F6E360791CC0F670
:105A80000100FAF79FFC40F2D417C2F2000730463B
:105A90003021A7F8568087F85880A7F8598087F8F2
:105AA0005B80A7F85C9087F85E90FAF753FF40F2AE
:105AB0009430C2F200003021FAF74CFF40F640600B
:105AC000C2F20000C021FAF745FF2846302187F8CE
:105AD0006180A7F85F80A7F8628087F86480CAE9D0
